{"contracts/GameScore.sol":{"GameScore":{"abi":[{"anonymous":false,"inputs":[{"indexed":true,"internalType":"address","name":"submitterAddress","type":"address"},{"indexed":false,"internalType":"string","name":"winner","type":"string"},{"indexed":false,"internalType":"string","name":"loser","type":"string"},{"indexed":false,"internalType":"string","name":"score","type":"string"},{"indexed":false,"internalType":"uint256","name":"duration","type":"uint256"},{"indexed":false,"internalType":"uint256","name":"timestamp","type":"uint256"}],"name":"ScoreRecorded","type":"event"},{"inputs":[{"internalType":"string","name":"_winner","type":"string"},{"internalType":"string","name":"_loser","type":"string"},{"internalType":"string","name":"_score","type":"string"},{"internalType":"uint256","name":"_duration","type":"uint256"}],"name":"recordScore","outputs":[],"stateMutability":"nonpayable","type":"function"}],"evm":{"bytecode":{"linkReferences":{},"object":"608060405234801561001057600080fd5b50610291806100206000396000f3fe608060405234801561001057600080fd5b506004361061002b5760003560e01c80634fa8a5ff14610030575b600080fd5b61004361003e366004610137565b610045565b005b336001600160a01b03167f6778c80e2896aaa77b62c5bd50043f83b3962d6421122f30fa28a7b7d4a8df44858585854260405161008695949392919061020d565b60405180910390a250505050565b634e487b7160e01b600052604160045260246000fd5b600082601f8301126100bb57600080fd5b813567ffffffffffffffff808211156100d6576100d6610094565b604051601f8301601f19908116603f011681019082821181831017156100fe576100fe610094565b8160405283815286602085880101111561011757600080fd5b836020870160208301376000602085830101528094505050505092915050565b6000806000806080858703121561014d57600080fd5b843567ffffffffffffffff8082111561016557600080fd5b610171888389016100aa565b9550602087013591508082111561018757600080fd5b610193888389016100aa565b945060408701359150808211156101a957600080fd5b506101b6878288016100aa565b949793965093946060013593505050565b6000815180845260005b818110156101ed576020818501810151868301820152016101d1565b506000602082860101526020601f19601f83011685010191505092915050565b60a08152600061022060a08301886101c7565b828103602084015261023281886101c7565b9050828103604084015261024681876101c7565b6060840195909552505060800152939250505056fea26469706673582212204bf86fb4f6d0dba49efac82b1ce15a6113da962e2715ab1be2f7fc526f724f0464736f6c63430008140033","opcodes":"PUSH1 0x80 PUSH1 0x40 MSTORE CALLVALUE DUP1 ISZERO PUSH2 0x10 JUMPI PUSH1 0x0 DUP1 REVERT JUMPDEST POP PUSH2 0x291 DUP1 PUSH2 0x20 PUSH1 0x0 CODECOPY PUSH1 0x0 RETURN INVALID PUSH1 0x80 PUSH1 0x40 MSTORE CALLVALUE DUP1 ISZERO PUSH2 0x10 JUMPI PUSH1 0x0 DUP1 REVERT JUMPDEST POP PUSH1 0x4 CALLDATASIZE LT PUSH2 0x2B JUMPI PUSH1 0x0 CALLDATALOAD PUSH1 0xE0 SHR DUP1 PUSH4 0x4FA8A5FF EQ PUSH2 0x30 JUMPI JUMPDEST PUSH1 0x0 DUP1 REVERT JUMPDEST PUSH2 0x43 PUSH2 0x3E CALLDATASIZE PUSH1 0x4 PUSH2 0x137 JUMP JUMPDEST PUSH2 0x45 JUMP JUMPDEST STOP JUMPDEST CALLER PUSH1 0x1 PUSH1 0x1 PUSH1 0xA0 SHL SUB AND PUSH32 0x6778C80E2896AAA77B62C5BD50043F83B3962D6421122F30FA28A7B7D4A8DF44 DUP6 DUP6 DUP6 DUP6 TIMESTAMP PUSH1 0x40 MLOAD PUSH2 0x86 SWAP6 SWAP5 SWAP4 SWAP3 SWAP2 SWAP1 PUSH2 0x20D JUMP JUMPDEST PUSH1 0x40 MLOAD DUP1 SWAP2 SUB SWAP1 LOG2 POP POP POP POP JUMP JUMPDEST PUSH4 0x4E487B71 PUSH1 0xE0 SHL PUSH1 0x0 MSTORE PUSH1 0x41 PUSH1 0x4 MSTORE PUSH1 0x24 PUSH1 0x0 REVERT JUMPDEST PUSH1 0x0 DUP3 PUSH1 0x1F DUP4 ADD SLT PUSH2 0xBB JUMPI PUSH1 0x0 DUP1 REVERT JUMPDEST DUP2 CALLDATALOAD PUSH8 0xFFFFFFFFFFFFFFFF DUP1 DUP3 GT ISZERO PUSH2 0xD6 JUMPI PUSH2 0xD6 PUSH2 0x94 JUMP JUMPDEST PUSH1 0x40 MLOAD PUSH1 0x1F DUP4 ADD PUSH1 0x1F NOT SWAP1 DUP2 AND PUSH1 0x3F ADD AND DUP2 ADD SWAP1 DUP3 DUP3 GT DUP2 DUP4 LT OR ISZERO PUSH2 0xFE JUMPI PUSH2 0xFE PUSH2 0x94 JUMP JUMPDEST DUP2 PUSH1 0x40 MSTORE DUP4 DUP2 MSTORE DUP7 PUSH1 0x20 DUP6 DUP9 ADD ADD GT ISZERO PUSH2 0x117 JUMPI PUSH1 0x0 DUP1 REVERT JUMPDEST DUP4 PUSH1 0x20 DUP8 ADD PUSH1 0x20 DUP4 ADD CALLDATACOPY PUSH1 0x0 PUSH1 0x20 DUP6 DUP4 ADD ADD MSTORE DUP1 SWAP5 POP POP POP POP POP SWAP3 SWAP2 POP POP JUMP JUMPDEST PUSH1 0x0 DUP1 PUSH1 0x0 DUP1 PUSH1 0x80 DUP6 DUP8 SUB SLT ISZERO PUSH2 0x14D JUMPI PUSH1 0x0 DUP1 REVERT JUMPDEST DUP5 CALLDATALOAD PUSH8 0xFFFFFFFFFFFFFFFF DUP1 DUP3 GT ISZERO PUSH2 0x165 JUMPI PUSH1 0x0 DUP1 REVERT JUMPDEST PUSH2 0x171 DUP9 DUP4 DUP10 ADD PUSH2 0xAA JUMP JUMPDEST SWAP6 POP PUSH1 0x20 DUP8 ADD CALLDATALOAD SWAP2 POP DUP1 DUP3 GT ISZERO PUSH2 0x187 JUMPI PUSH1 0x0 DUP1 REVERT JUMPDEST PUSH2 0x193 DUP9 DUP4 DUP10 ADD PUSH2 0xAA JUMP JUMPDEST SWAP5 POP PUSH1 0x40 DUP8 ADD CALLDATALOAD SWAP2 POP DUP1 DUP3 GT ISZERO PUSH2 0x1A9 JUMPI PUSH1 0x0 DUP1 REVERT JUMPDEST POP PUSH2 0x1B6 DUP8 DUP3 DUP9 ADD PUSH2 0xAA JUMP JUMPDEST SWAP5 SWAP8 SWAP4 SWAP7 POP SWAP4 SWAP5 PUSH1 0x60 ADD CALLDATALOAD SWAP4 POP POP POP JUMP JUMPDEST PUSH1 0x0 DUP2 MLOAD DUP1 DUP5 MSTORE PUSH1 0x0 JUMPDEST DUP2 DUP2 LT ISZERO PUSH2 0x1ED JUMPI PUSH1 0x20 DUP2 DUP6 ADD DUP2 ADD MLOAD DUP7 DUP4 ADD DUP3 ADD MSTORE ADD PUSH2 0x1D1 JUMP JUMPDEST POP PUSH1 0x0 PUSH1 0x20 DUP3 DUP7 ADD ADD MSTORE PUSH1 0x20 PUSH1 0x1F NOT PUSH1 0x1F DUP4 ADD AND DUP6 ADD ADD SWAP2 POP POP SWAP3 SWAP2 POP POP JUMP JUMPDEST PUSH1 0xA0 DUP2 MSTORE PUSH1 0x0 PUSH2 0x220 PUSH1 0xA0 DUP4 ADD DUP9 PUSH2 0x1C7 JUMP JUMPDEST DUP3 DUP2 SUB PUSH1 0x20 DUP5 ADD MSTORE PUSH2 0x232 DUP2 DUP9 PUSH2 0x1C7 JUMP JUMPDEST SWAP1 POP DUP3 DUP2 SUB PUSH1 0x40 DUP5 ADD MSTORE PUSH2 0x246 DUP2 DUP8 PUSH2 0x1C7 JUMP JUMPDEST PUSH1 0x60 DUP5 ADD SWAP6 SWAP1 SWAP6 MSTORE POP POP PUSH1 0x80 ADD MSTORE SWAP4 SWAP3 POP POP POP JUMP INVALID LOG2 PUSH5 0x6970667358 0x22 SLT KECCAK256 0x4B 0xF8 PUSH16 0xB4F6D0DBA49EFAC82B1CE15A6113DA96 0x2E 0x27 ISZERO 0xAB SHL 0xE2 0xF7 0xFC MSTORE PUSH16 0x724F0464736F6C634300081400330000 "},"methodIdentifiers":{"recordScore(string,string,string,uint256)":"4fa8a5ff"}}}}}