{
  "_format": "hh-sol-artifact-1",
  "contractName": "GameScore",
  "sourceName": "contracts/GameScore.sol",
  "abi": [
    {
      "anonymous": false,
      "inputs": [
        {
          "indexed": true,
          "internalType": "address",
          "name": "submitterAddress",
          "type": "address"
        },
        {
          "indexed": false,
          "internalType": "string",
          "name": "winner",
          "type": "string"
        },
        {
          "indexed": false,
          "internalType": "string",
          "name": "loser",
          "type": "string"
        },
        {
          "indexed": false,
          "internalType": "string",
          "name": "score",
          "type": "string"
        },
        {
          "indexed": false,
          "internalType": "uint256",
          "name": "duration",
          "type": "uint256"
        },
        {
          "indexed": false,
          "internalType": "uint256",
          "name": "timestamp",
          "type": "uint256"
        }
      ],
      "name": "ScoreRecorded",
      "type": "event"
    },
    {
      "inputs": [
        {
          "internalType": "string",
          "name": "_winner",
          "type": "string"
        },
        {
          "internalType": "string",
          "name": "_loser",
          "type": "string"
        },
        {
          "internalType": "string",
          "name": "_score",
          "type": "string"
        },
        {
          "internalType": "uint256",
          "name": "_duration",
          "type": "uint256"
        }
      ],
      "name": "recordScore",
      "outputs": [],
      "stateMutability": "nonpayable",
      "type": "function"
    }
  ],
  "bytecode": "0x608060405234801561001057600080fd5b50610291806100206000396000f3fe608060405234801561001057600080fd5b506004361061002b5760003560e01c80634fa8a5ff14610030575b600080fd5b61004361003e366004610137565b610045565b005b336001600160a01b03167f6778c80e2896aaa77b62c5bd50043f83b3962d6421122f30fa28a7b7d4a8df44858585854260405161008695949392919061020d565b60405180910390a250505050565b634e487b7160e01b600052604160045260246000fd5b600082601f8301126100bb57600080fd5b813567ffffffffffffffff808211156100d6576100d6610094565b604051601f8301601f19908116603f011681019082821181831017156100fe576100fe610094565b8160405283815286602085880101111561011757600080fd5b836020870160208301376000602085830101528094505050505092915050565b6000806000806080858703121561014d57600080fd5b843567ffffffffffffffff8082111561016557600080fd5b610171888389016100aa565b9550602087013591508082111561018757600080fd5b610193888389016100aa565b945060408701359150808211156101a957600080fd5b506101b6878288016100aa565b949793965093946060013593505050565b6000815180845260005b818110156101ed576020818501810151868301820152016101d1565b506000602082860101526020601f19601f83011685010191505092915050565b60a08152600061022060a08301886101c7565b828103602084015261023281886101c7565b9050828103604084015261024681876101c7565b6060840195909552505060800152939250505056fea26469706673582212204bf86fb4f6d0dba49efac82b1ce15a6113da962e2715ab1be2f7fc526f724f0464736f6c63430008140033",
  "linkReferences": {},
  "deployedLinkReferences": {}
}